:040000008A11112828
:10000800FE00030EF5000408F6000A08F700831244
:1000180003137F08F8008A11762A8A1113288A1197
:100028006C248A11DB008317203084005C308A112D
:1000380064248A118313A0308400DC308A1164247C
:100048008A112030840042308A116424F901FA01AF
:1000580083018A112F288316031317148A11BE21CE
:100068008A11831203130613831603138C16273081
:1000780083120313C2000030C3002030C4000030D4
:10008800C5001B30D2005208C6008A119F238A116E
:10009800831203130616A501A301F901A401EB308D
:1000A8008F00DC308E00FA01FA0A0509F038D20018
:1000B8005208C100831603130C148C140B178B17EA
:1000C80064001930831203178D003F308312031325
:1000D800D2005208831603178C050C1483120317D9
:1000E8000C0883120313D2005208A0002008D20083
:1000F800520883120317A00083120313250803195B
:100108009129240803199129A030C2000030C300A6
:100118002508D2005208C4008A1115238A118312B7
:1001280003132208031D8D292108031D8D29DA01D7
:1001380083160313250883120313D2005207D30032
:100148005308DA000330831603132106031D2329FD
:1001580004302206031DE928640083120313D80122
:100168005A085802031808295808033E203E8400FC
:10017800831780010230C2000030C3005808D20043
:10018800D3015208C4005308C5008A111B228A11E2
:10019800831203134208D4004308D50083160313BF
:1001A8002308831203135407273E8400831300088F
:1001B800D6005808043E203E840056088317800065
:1001C8000230D2005208D807B42883160313220835
:1001D800031D08296400233083120313C200013071
:1001E800C30083160313230883120313D200D30119
:1001F8000310520DC400530DC5005A08D40054080A
:10020800C6008A119F238A118316031321088312BB
:100218000313D200520883120317A1008312031399
:100228005A08D200520883120317A2002030831202
:100238000313CC000130CD005A08033E8729103043
:10024800831603132106031D8D2904302206031D7E
:10025800632983120313D7015A08570203185F2929
:100268005708083EA03E840083130008D2000230DD
:10027800C2000030C3005708D300D4015308C4009B
:100288005408C5008A111B228A11831203134208DD
:10029800D5004308D60083160313230883120313DB
:1002A8005507273E84005208831380000230D2008D
:1002B8005208D70730298A1113248A1180298316F6
:1002C80003132208031D80296400831603132308DF
:1002D80083120313D200D3010310520DC200530D31
:1002E800C300A730D4005408C4005A08D5005508E4
:1002F800C5008A11C7228A11A03083120313CC00CB
:100308000030CD000630D2005208CE008A115E239C
:100318008A1183120313A501A40164008312031335
:100328005B0803196528121512302602031C65287C
:10033800DB011211640083120313D901083059023A
:10034800031865284108D200590AAC290310D20CB9
:10035800FF3E031DAA2952080139D3005908103E4F
:10036800273E84005308831380000130D2005208CE
:10037800D907A2296830831603138F001530970018
:100388001710073081008B018C018D018312031334
:100398008C018D011330831603138E00831203170B
:1003A8009E019F0199019A013F3083120313850032
:1003B8003F308316031385003F3095003F30960089
:1003C800303083120313860020308316031386000F
:1003D80020308312031795009601831603138701B3
:1003E80083120313870101309000FA308316031338
:1003F80092004930831203139200831603131812D4
:1004080018159B159A0167309900831203139817E2
:100418008316031398168312031318168B150B17DC
:100428008B12831603130C148C108C16080083127D
:100438000313C801C31F272AC209C309C20A031923
:10044800C30AC801C80AC51F322AC409C509C40A93
:100458000319C50A0130C6004608C806C901CA0101
:10046800420843040319692AC701C70AC31B482A5B
:1004780001300310C20DC30DFF3E031D3D2A01309C
:10048800C6004608C7073A2A01300310C90DCA0D2D
:10049800FF3E031D492A43084502031D552A420809
:1004A8004402031C5E2A4208C4024308031CC50315
:1004B800C502491401300310C30CC20CFF3E031DD2
:1004C8005F2A0130C702031D482A48080319712A08
:1004D800C909CA09C90A0319CA0A4A08C300490846
:1004E800C2000800831603130C1C912A83120313FD
:1004F8000C1C912A7A03031D852AA301F901F90A24
:100508008E2AF901A301A30AA401A40A23308A119F
:1005180038248A11831203130C10831603138C1CBE
:100528009E2A831203138C1C9E2A0130F40074083F
:10053800A6078C1083128C1EAC2A831603138C1EFC
:10054800AC2A8312031306121A088A11DB238A11B4
:100558008B190B1CBA2A83120313A6010509F0385C
:10056800F4007408C1000B10DB01DB0A7808831261
:100578000313FF0077088A0076088400750E83004D
:10058800FE0E7E0E0900831203134408C6004608B7
:10059800C700831603178C18CD2A83120313420849
:1005A800FF3E831203178D007F3083120313C600AA
:1005B8004608831603178C05013083120313C502FE
:1005C800450A03190800831603178C18E72A8312B3
:1005D80003134708840083130008831203178C0051
:1005E800013083120313C6004608C7070130C6004E
:1005F8004608831203178D078312031303108B1BFE
:1006080003148B13831603170C1555308D00AA306D
:100618008D008C140C1183120313031CE02A8B1712
:10062800E02AFF3083120313C5004508A200FF30FB
:10063800C5004508A100CA0144084A020318080079
:100648004A084207C50043080318013EC60045088A
:1006580084008317461C83130008C7004708A206B6
:10066800CB0108304B020318592B2108C500450857
:10067800C9002208C5004508C8000310A10C0310D2
:10068800A20C4918A217481C512BA030C5004508D8
:10069800A1060130C5004508A2060130C50045087D
:1006A800CB0708304B02031C392B0130C500450825
:1006B800CA07202B831203134C08C2004D08C3003D
:1006C8004E08CF004F08C4008A1115238A118312DF
:1006D80003130617831603130C1083120313D10197
:1006E8004E08510203188F2B51084C07CF004D08B4
:1006F8000318013ED0004F0884008317501C831351
:1007080000088A115A248A11013083120313CF007A
:100718004F08D107742B22088A115A248A11831290
:10072800031321088A115A2483120313061383160C
:1007380003130C140800831203134208C80043086B
:10074800C900831603178C18A52B831203134408BA
:10075800831203178D00013083120313C602460A61
:1007680003190800831603178C18B62B7F308312E1
:100778000313C7004708831603178C050C1483124C
:100788000313480884008313491883178312031737
:100798000C088000013083120313C8070318C90A24
:1007A8000130C7004708831203178D07AF2BF200EB
:1007B8007208F1007108F300831203132508031D62
:1007C800FA2B7903031DF82B72082006031DF82B5A
:1007D8007308F100710883160313A0000130F100BB
:1007E8007108831203130B2C23300D2C3C30831219
:1007F8000313250203180F2C7308F1002508A03EE7
:1008080084007108831380000130F1007108A50786
:100818000F308A1138248312031306160800831236
:100828000313C401C5010830450203182F2C031017
:10083800C40D4503FF3A073E273E84008313000892
:10084800C2004208C4070130C2004208C507083088
:100858004502031C1C2C4408C2004208BF00C30107
:100868004408430487000800F000512CF901831262
:100878000313A301F4308F00CF308E000C10FA015F
:100888000800F90183120313A301EB308F00DC3059
:100898008E000C10FA01FA0A080070080F3A0319C2
:1008A8003A2C2C3A0319452C592C080083120313AF
:1008B800C2004208990083160313981808005F2C99
:1008C80064008001840A0406031900340406652CB8
:0208D8000134E9
:08400000200017001000090068
:02400E0004FFAD
:1042000000000400010000004D00440038003800A8
:10421000000000000000000000000000000000009E
:10422000000000000000000000000000000000008E
:1042300000000100FF00FF00FF00FF00FF00FF0083
:10424000000000000000000000000000000000006E
:10425000000000000000000000000000000000005E
:10426000000000000000000001000100010001004A
:1042700000000000FF00000000000000000000003F
:10428000000000000000000000000000000000002E
:10429000000000000000000000000000000000001E
:1042A000000000000000000000000000000000000E
:1042B00000000000000000000000000000000000FE
:00000001FF
