:040000008A11112828
:10000800FE00030EF5000408F6000A08F700831244
:1000180003137F08F8008A11712A8A1113288A119C
:1000280076248A11DB008317203084005C308A1123
:100038006E248A118313A0308400DC308A116E2468
:100048008A112030840042308A116E24F901FA01A5
:1000580083018A112F288A11B9218A118312031367
:100068000613831603138C16273083120313C2005A
:100078000030C3002030C4000030C5001B30D2005F
:100088005208C6008A11A0238A1183120313061688
:10009800A501A301F901A401EB308F00DC308E002B
:1000A800FA01FA0A0509FC38D2005208C100831681
:1000B80003130C148C148312031312150B178B17CC
:1000C80064001930831203178D003F308312031325
:1000D800D2005208831603178C050C1483120317D9
:1000E8000C0883120313D2005208A00083120313D2
:1000F8002008D200520883120317A00083120313AA
:10010800250803198E29240803198E29A030C20056
:100118000030C3002508D2005208C4008A111623F3
:100128008A11831203132208031D8A292108031D3B
:100138008A29DA0183160313250883120313D200D0
:100148005207D3005308DA0003308316031321063D
:10015800031D232904302206031DEA2883120313F2
:10016800D8015A085802031808295808033E203EA7
:100178008400831780010230C2000030C300580891
:10018800D200D3015208C4005308C5008A111622B0
:100198008A11831203134208D4004308D50083163A
:1001A80003132308831203135407273E8400831381
:1001B8000008D6005808043E203E840056088317DD
:1001C80080000230D2005208D807B52883160313DE
:1001D8002208031D0829233083120313C2000130AB
:1001E800C30083160313230883120313D200D30119
:1001F8000310520DC400530DC5005A08D40054080A
:10020800C6008A11A0238A118316031321088312BA
:100218000313D200520883120317A1008312031399
:100228005A08D200520883120317A2002030831202
:100238000313CC000130CD005A08033E8429103046
:10024800831603132106031D8A2904302206031D81
:10025800632983120313D7015A08570203185F2929
:100268005708083EA03E840083130008D2000230DD
:10027800C2000030C3005708D300D4015308C4009B
:100288005408C5008A1116228A11831203134208E2
:10029800D5004308D60083160313230883120313DB
:1002A8005507273E84005208831380000230D2008D
:1002B8005208D70730298A1117248A117D298316F5
:1002C80003132208031D7D29230883120313D20078
:1002D800D3010310520DC200530DC300A730D40040
:1002E8005408C4005A08D5005508C5008A11C82208
:1002F8008A11A03083120313CC000030CD000630E1
:10030800D2005208CE008A115F238A118312031388
:10031800A501A4015B080319B729FB302602031CB9
:10032800B729A601DB01D901083059020318B729FA
:100338004108D200590AA2290310D20CFF3E031D1E
:10034800A02952080139D3005908103E273E8400DD
:100358005308831380000130D2005208D9070830AF
:100368005902031C9C2964007A28683083160313F9
:100378008F001530970017100F3081008B018C010A
:100388008D01831203138C018D011330831603131F
:100398008E00831203179E019F0199019A013F3035
:1003A8008312031385003F308316031385003F3003
:1003B80095003F30960030308312031386002030BA
:1003C80083160313860020308312031795009601C5
:1003D80083160313870183120313870101309000EA
:1003E800FA308316031392004930831203139200E4
:1003F80083160313181218159B159A016730990074
:100408008312031398178316031398168312031382
:1004180018168B150B178B12831603130C148C10DC
:100428008C16080083120313C801C31F222AC209AD
:10043800C309C20A0319C30AC801C80AC51F2D2A5D
:10044800C409C509C40A0319C50A0130C60046080B
:10045800C806C901CA01420843040319642AC7012E
:10046800C70AC31B432A01300310C20DC30DFF3E48
:10047800031D382A0130C6004608C707352A01304F
:100488000310C90DCA0DFF3E031D442A4308450247
:10049800031D502A42084402031C592A4208C40278
:1004A8004308031CC503C502491401300310C30CDB
:1004B800C20CFF3E031D5A2A0130C702031D432AFE
:1004C800480803196C2AC909CA09C90A0319CA0ABA
:1004D8004A08C3004908C2000800831603130C1C0D
:1004E8008E2A831203130C1C8E2A7A03031D802A7A
:1004F800A301F901F90A8A2AF901A301A30AA401AF
:10050800A40A061623308A1142248A11831203137F
:100518000C10BB2A831603138C1C9F2A8312031307
:100528008C1C9F2A5B0803199D2A0130F40074086B
:10053800A6078C10BB2A83128C1EAE2A83160313BF
:100548008C1EAE2A8312031306121A088A11DC23A2
:100558008A11BB2A8B190B1CBB2A8312A601050919
:10056800FC38F4007408C1000B10DB01DB0A7808C2
:1005780083120313FF0077088A0076088400750E3B
:100588008300FE0E7E0E0900831203134408C60082
:100598004608C700831603178C18CE2A8312031344
:1005A8004208FF3E831203178D007F308312031326
:1005B800C6004608831603178C05013083120313FF
:1005C800C502450A03190800831603178C18E82A80
:1005D8008312031347088400831300088312031748
:1005E8008C00013083120313C6004608C707013088
:1005F800C6004608831203178D07831203130310DE
:100608008B1B03148B13831603170C1555308D00A1
:10061800AA308D008C140C1183120313031CE12AD9
:100628008B17E12AFF3083120313C5004508A20087
:10063800FF30C5004508A100CA0144084A02031852
:1006480008004A084207C50043080318013EC600CF
:10065800450884008317461C83130008C700470811
:10066800A206CB0108304B0203185A2B2108C500FB
:100678004508C9002208C5004508C8000310A10C98
:100688000310A20C4918A217481C522BA030C50011
:100698004508A1060130C5004508A2060130C5007D
:1006A8004508CB0708304B02031C3A2B0130C50024
:1006B8004508CA07212B831203134C08C2004D08B2
:1006C800C3004E08CF004F08C4008A1116238A11B0
:1006D800831203130617831603130C1083120313D4
:1006E800D1014E0851020318902B51084C07CF0036
:1006F8004D080318013ED0004F0884008317501C92
:10070800831300088A1164248A11013083120313A9
:10071800CF004F08D107752B22088A1164248A114B
:100728008312031321088A11642483120313061306
:10073800831603130C140800831203134208C8001D
:100748004308C900831603178C18A62B83120313BA
:100758004408831203178D00013083120313C60265
:10076800460A03190800831603178C18B72B7F3025
:1007780083120313C7004708831603178C050C144C
:1007880083120313480884008313491883178312BC
:1007980003170C088000013083120313C8070318DD
:1007A800C90A0130C7004708831203178D07B02B09
:1007B800F2007208F1007108F30083120313250890
:1007C800031D012C7903031DFD2B72082006031D50
:1007D800FD2B7308F100710883160313A000013084
:1007E800F100710883120313A5070F308A11422400
:1007F800080023308A11422408003C308312031376
:100808002502031808007308F1002508A03E84009B
:100818007108831380000130F1007108A5070F30BB
:100828008A114224080083120313C401C501083049
:1008380045020318332C0310C40D4503FF3A073E45
:10084800273E840083130008C2004208C404013014
:10085800C2004208C50708304502031C202C440882
:100868003339C2004208BF000708CC39C200420829
:10087800C30044083339430487000800F0005B2CA8
:10088800F90183120313A301F4308F00CF308E00D7
:100898000C10FA010800F90183120313A301EB30CD
:1008A8008F00DC308E000C10FA01FA0A080070087C
:1008B8000F3A0319442C2C3A03194F2C632C0800C7
:1008C80083120313C2004208990083160313981871
:1008D8000800692C64008001840A040603190034A6
:0608E80004066F2C013430
:08400000200017001000190058
:02400E000CFFA5
:1042000000000400010000004D00440032003400B2
:10421000000000000000000000000000000000009E
:10422000000000000000000000000000000000008E
:1042300000000200FF00FF00FF00FF00FF00FF0082
:10424000000000000000000000000000000000006E
:10425000000000000000000000000000000000005E
:10426000000000000000000001000100010001004A
:1042700000000000FF00000000000000000000003F
:10428000000000000000000000000000000000002E
:10429000000000000000000000000000000000001E
:1042A000000000000000000000000000000000000E
:1042B00000000000000000000000000000000000FE
:00000001FF
